{
  "_format": "hh-sol-artifact-1",
  "contractName": "AlphaLens",
  "sourceName": "contracts/AlphaLens.sol",
  "abi": [
    {
      "anonymous": false,
      "inputs": [
        {
          "indexed": true,
          "internalType": "uint256",
          "name": "predictionId",
          "type": "uint256"
        },
        {
          "indexed": true,
          "internalType": "address",
          "name": "creator",
          "type": "address"
        },
        {
          "indexed": false,
          "internalType": "string",
          "name": "text",
          "type": "string"
        }
      ],
      "name": "PredictionPosted",
      "type": "event"
    },
    {
      "anonymous": false,
      "inputs": [
        {
          "indexed": true,
          "internalType": "uint256",
          "name": "predictionId",
          "type": "uint256"
        },
        {
          "indexed": false,
          "internalType": "bool",
          "name": "outcome",
          "type": "bool"
        }
      ],
      "name": "PredictionResolved",
      "type": "event"
    },
    {
      "anonymous": false,
      "inputs": [
        {
          "indexed": true,
          "internalType": "uint256",
          "name": "predictionId",
          "type": "uint256"
        },
        {
          "indexed": true,
          "internalType": "address",
          "name": "staker",
          "type": "address"
        },
        {
          "indexed": false,
          "internalType": "bool",
          "name": "agree",
          "type": "bool"
        },
        {
          "indexed": false,
          "internalType": "uint256",
          "name": "amount",
          "type": "uint256"
        }
      ],
      "name": "Staked",
      "type": "event"
    },
    {
      "inputs": [
        {
          "internalType": "uint256",
          "name": "_predictionId",
          "type": "uint256"
        }
      ],
      "name": "getPrediction",
      "outputs": [
        {
          "internalType": "address",
          "name": "creator",
          "type": "address"
        },
        {
          "internalType": "string",
          "name": "text",
          "type": "string"
        },
        {
          "internalType": "uint256",
          "name": "agrees",
          "type": "uint256"
        },
        {
          "internalType": "uint256",
          "name": "disagrees",
          "type": "uint256"
        },
        {
          "internalType": "uint256",
          "name": "totalStake",
          "type": "uint256"
        },
        {
          "internalType": "bool",
          "name": "resolved",
          "type": "bool"
        },
        {
          "internalType": "bool",
          "name": "outcome",
          "type": "bool"
        }
      ],
      "stateMutability": "view",
      "type": "function"
    },
    {
      "inputs": [
        {
          "internalType": "string",
          "name": "_text",
          "type": "string"
        }
      ],
      "name": "postPrediction",
      "outputs": [],
      "stateMutability": "nonpayable",
      "type": "function"
    },
    {
      "inputs": [
        {
          "internalType": "uint256",
          "name": "",
          "type": "uint256"
        }
      ],
      "name": "predictions",
      "outputs": [
        {
          "internalType": "address",
          "name": "creator",
          "type": "address"
        },
        {
          "internalType": "string",
          "name": "text",
          "type": "string"
        },
        {
          "internalType": "uint256",
          "name": "agrees",
          "type": "uint256"
        },
        {
          "internalType": "uint256",
          "name": "disagrees",
          "type": "uint256"
        },
        {
          "internalType": "uint256",
          "name": "totalStake",
          "type": "uint256"
        },
        {
          "internalType": "bool",
          "name": "resolved",
          "type": "bool"
        },
        {
          "internalType": "bool",
          "name": "outcome",
          "type": "bool"
        }
      ],
      "stateMutability": "view",
      "type": "function"
    },
    {
      "inputs": [
        {
          "internalType": "address",
          "name": "",
          "type": "address"
        }
      ],
      "name": "reputation",
      "outputs": [
        {
          "internalType": "uint256",
          "name": "",
          "type": "uint256"
        }
      ],
      "stateMutability": "view",
      "type": "function"
    },
    {
      "inputs": [
        {
          "internalType": "uint256",
          "name": "_predictionId",
          "type": "uint256"
        },
        {
          "internalType": "bool",
          "name": "_outcome",
          "type": "bool"
        }
      ],
      "name": "resolvePrediction",
      "outputs": [],
      "stateMutability": "nonpayable",
      "type": "function"
    },
    {
      "inputs": [
        {
          "internalType": "uint256",
          "name": "_predictionId",
          "type": "uint256"
        },
        {
          "internalType": "bool",
          "name": "_agree",
          "type": "bool"
        }
      ],
      "name": "stake",
      "outputs": [],
      "stateMutability": "payable",
      "type": "function"
    }
  ],
  "bytecode": "0x608060405234801561001057600080fd5b506115b3806100206000396000f3fe6080604052600436106100545760003560e01c80624fbbb0146100595780633732df551461009c57806376f34501146100c5578063abe50f19146100ee578063b9f794511461010a578063fe83bece14610147575b600080fd5b34801561006557600080fd5b50610080600480360381019061007b9190610aa1565b61018a565b6040516100939796959493929190610bc9565b60405180910390f35b3480156100a857600080fd5b506100c360048036038101906100be9190610d74565b61029e565b005b3480156100d157600080fd5b506100ec60048036038101906100e79190610de9565b6103b5565b005b61010860048036038101906101039190610de9565b61067d565b005b34801561011657600080fd5b50610131600480360381019061012c9190610e55565b6108c6565b60405161013e9190610e82565b60405180910390f35b34801561015357600080fd5b5061016e60048036038101906101699190610aa1565b6108de565b6040516101819796959493929190610bc9565b60405180910390f35b6000818154811061019a57600080fd5b90600052602060002090600702016000915090508060000160009054906101000a900473ffffffffffffffffffffffffffffffffffffffff16908060010180546101e390610ecc565b80601f016020809104026020016040519081016040528092919081815260200182805461020f90610ecc565b801561025c5780601f106102315761010080835404028352916020019161025c565b820191906000526020600020905b81548152906001019060200180831161023f57829003601f168201915b5050505050908060020154908060030154908060040154908060050160009054906101000a900460ff16908060050160019054906101000a900460ff16905087565b6000806001816001815401808255809150500390600052602060002090600702019050338160000160006101000a81548173ffffffffffffffffffffffffffffffffffffffff021916908373ffffffffffffffffffffffffffffffffffffffff1602179055508181600101908161031591906110a9565b5060008160020181905550600081600301819055506000816004018190555060008160050160006101000a81548160ff0219169083151502179055503373ffffffffffffffffffffffffffffffffffffffff16600160008054905061037a91906111aa565b7f428340a539e2d208302cc09730df6e8f47db538ac0e23950754a8c48e99daffd846040516103a991906111de565b60405180910390a35050565b60008054905082106103fc576040517f08c379a00000000000000000000000000000000000000000000000000000000081526004016103f39061124c565b60405180910390fd5b60008083815481106104115761041061126c565b5b906000526020600020906007020190508060050160009054906101000a900460ff1615610473576040517f08c379a000000000000000000000000000000000000000000000000000000000815260040161046a906112e7565b60405180910390fd5b8060000160009054906101000a900473ffffffffffffffffffffffffffffffffffffffff1673ffffffffffffffffffffffffffffffffffffffff163373ffffffffffffffffffffffffffffffffffffffff1614610505576040517f08c379a00000000000000000000000000000000000000000000000000000000081526004016104fc90611379565b60405180910390fd5b60018160050160006101000a81548160ff021916908315150217905550818160050160016101000a81548160ff02191690831515021790555081156105c457600a600160008360000160009054906101000a900473ffffffffffffffffffffffffffffffffffffffff1673ffffffffffffffffffffffffffffffffffffffff1673ffffffffffffffffffffffffffffffffffffffff16815260200190815260200160002060008282546105b89190611399565b92505081905550610640565b6005600160008360000160009054906101000a900473ffffffffffffffffffffffffffffffffffffffff1673ffffffffffffffffffffffffffffffffffffffff1673ffffffffffffffffffffffffffffffffffffffff168152602001908152602001600020600082825461063891906111aa565b925050819055505b827fa9d962ae3fe0d2c416ffe3dd757819699b5662be6ed8b67ed6644d5f232cac6c8360405161067091906113cd565b60405180910390a2505050565b60008054905082106106c4576040517f08c379a00000000000000000000000000000000000000000000000000000000081526004016106bb9061124c565b60405180910390fd5b60003411610707576040517f08c379a00000000000000000000000000000000000000000000000000000000081526004016106fe9061145a565b60405180910390fd5b600080838154811061071c5761071b61126c565b5b906000526020600020906007020190508060060160003373ffffffffffffffffffffffffffffffffffffffff1673ffffffffffffffffffffffffffffffffffffffff16815260200190815260200160002060009054906101000a900460ff16156107bb576040517f08c379a00000000000000000000000000000000000000000000000000000000081526004016107b2906114ec565b60405180910390fd5b60018160060160003373ffffffffffffffffffffffffffffffffffffffff1673ffffffffffffffffffffffffffffffffffffffff16815260200190815260200160002060006101000a81548160ff021916908315150217905550348160040160008282546108299190611399565b9250508190555081156108555780600201600081548092919061084b9061150c565b9190505550610870565b80600301600081548092919061086a9061150c565b91905055505b3373ffffffffffffffffffffffffffffffffffffffff16837f740b87c8254001c5bb22c005dae213cda66458ff749a4a8b73842d576bd51ce384346040516108b9929190611554565b60405180910390a3505050565b60016020528060005260406000206000915090505481565b60006060600080600080600080805490508810610930576040517f08c379a00000000000000000000000000000000000000000000000000000000081526004016109279061124c565b60405180910390fd5b60008089815481106109455761094461126c565b5b906000526020600020906007020190508060000160009054906101000a900473ffffffffffffffffffffffffffffffffffffffff16816001018260020154836003015484600401548560050160009054906101000a900460ff168660050160019054906101000a900460ff168580546109bd90610ecc565b80601f01602080910402602001604051908101604052809291908181526020018280546109e990610ecc565b8015610a365780601f10610a0b57610100808354040283529160200191610a36565b820191906000526020600020905b815481529060010190602001808311610a1957829003601f168201915b50505050509550975097509750975097509750975050919395979092949650565b6000604051905090565b600080fd5b600080fd5b6000819050919050565b610a7e81610a6b565b8114610a8957600080fd5b50565b600081359050610a9b81610a75565b92915050565b600060208284031215610ab757610ab6610a61565b5b6000610ac584828501610a8c565b91505092915050565b600073ffffffffffffffffffffffffffffffffffffffff82169050919050565b6000610af982610ace565b9050919050565b610b0981610aee565b82525050565b600081519050919050565b600082825260208201905092915050565b60005b83811015610b49578082015181840152602081019050610b2e565b60008484015250505050565b6000601f19601f8301169050919050565b6000610b7182610b0f565b610b7b8185610b1a565b9350610b8b818560208601610b2b565b610b9481610b55565b840191505092915050565b610ba881610a6b565b82525050565b60008115159050919050565b610bc381610bae565b82525050565b600060e082019050610bde600083018a610b00565b8181036020830152610bf08189610b66565b9050610bff6040830188610b9f565b610c0c6060830187610b9f565b610c196080830186610b9f565b610c2660a0830185610bba565b610c3360c0830184610bba565b98975050505050505050565b600080fd5b600080fd5b7f4e487b7100000000000000000000000000000000000000000000000000000000600052604160045260246000fd5b610c8182610b55565b810181811067ffffffffffffffff82111715610ca057610c9f610c49565b5b80604052505050565b6000610cb3610a57565b9050610cbf8282610c78565b919050565b600067ffffffffffffffff821115610cdf57610cde610c49565b5b610ce882610b55565b9050602081019050919050565b82818337600083830152505050565b6000610d17610d1284610cc4565b610ca9565b905082815260208101848484011115610d3357610d32610c44565b5b610d3e848285610cf5565b509392505050565b600082601f830112610d5b57610d5a610c3f565b5b8135610d6b848260208601610d04565b91505092915050565b600060208284031215610d8a57610d89610a61565b5b600082013567ffffffffffffffff811115610da857610da7610a66565b5b610db484828501610d46565b91505092915050565b610dc681610bae565b8114610dd157600080fd5b50565b600081359050610de381610dbd565b92915050565b60008060408385031215610e0057610dff610a61565b5b6000610e0e85828601610a8c565b9250506020610e1f85828601610dd4565b9150509250929050565b610e3281610aee565b8114610e3d57600080fd5b50565b600081359050610e4f81610e29565b92915050565b600060208284031215610e6b57610e6a610a61565b5b6000610e7984828501610e40565b91505092915050565b6000602082019050610e976000830184610b9f565b92915050565b7f4e487b7100000000000000000000000000000000000000000000000000000000600052602260045260246000fd5b60006002820490506001821680610ee457607f821691505b602082108103610ef757610ef6610e9d565b5b50919050565b60008190508160005260206000209050919050565b60006020601f8301049050919050565b600082821b905092915050565b600060088302610f5f7fffffffffffffffffffffffffffffffffffffffffffffffffffffffffffffffff82610f22565b610f698683610f22565b95508019841693508086168417925050509392505050565b6000819050919050565b6000610fa6610fa1610f9c84610a6b565b610f81565b610a6b565b9050919050565b6000819050919050565b610fc083610f8b565b610fd4610fcc82610fad565b848454610f2f565b825550505050565b600090565b610fe9610fdc565b610ff4818484610fb7565b505050565b5b818110156110185761100d600082610fe1565b600181019050610ffa565b5050565b601f82111561105d5761102e81610efd565b61103784610f12565b81016020851015611046578190505b61105a61105285610f12565b830182610ff9565b50505b505050565b600082821c905092915050565b600061108060001984600802611062565b1980831691505092915050565b6000611099838361106f565b9150826002028217905092915050565b6110b282610b0f565b67ffffffffffffffff8111156110cb576110ca610c49565b5b6110d58254610ecc565b6110e082828561101c565b600060209050601f8311600181146111135760008415611101578287015190505b61110b858261108d565b865550611173565b601f19841661112186610efd565b60005b8281101561114957848901518255600182019150602085019450602081019050611124565b868310156111665784890151611162601f89168261106f565b8355505b6001600288020188555050505b505050505050565b7f4e487b7100000000000000000000000000000000000000000000000000000000600052601160045260246000fd5b60006111b582610a6b565b91506111c083610a6b565b92508282039050818111156111d8576111d761117b565b5b92915050565b600060208201905081810360008301526111f88184610b66565b905092915050565b7f496e76616c69642070726564696374696f6e2049440000000000000000000000600082015250565b6000611236601583610b1a565b915061124182611200565b602082019050919050565b6000602082019050818103600083015261126581611229565b9050919050565b7f4e487b7100000000000000000000000000000000000000000000000000000000600052603260045260246000fd5b7f50726564696374696f6e20616c7265616479207265736f6c7665640000000000600082015250565b60006112d1601b83610b1a565b91506112dc8261129b565b602082019050919050565b60006020820190508181036000830152611300816112c4565b9050919050565b7f4f6e6c79207468652063726561746f722063616e207265736f6c76652074686560008201527f2070726564696374696f6e000000000000000000000000000000000000000000602082015250565b6000611363602b83610b1a565b915061136e82611307565b604082019050919050565b6000602082019050818103600083015261139281611356565b9050919050565b60006113a482610a6b565b91506113af83610a6b565b92508282019050808211156113c7576113c661117b565b5b92915050565b60006020820190506113e26000830184610bba565b92915050565b7f5374616b6520616d6f756e74206d75737420626520677265617465722074686160008201527f6e20300000000000000000000000000000000000000000000000000000000000602082015250565b6000611444602383610b1a565b915061144f826113e8565b604082019050919050565b6000602082019050818103600083015261147381611437565b9050919050565b7f596f75206861766520616c7265616479207374616b6564206f6e20746869732060008201527f70726564696374696f6e00000000000000000000000000000000000000000000602082015250565b60006114d6602a83610b1a565b91506114e18261147a565b604082019050919050565b60006020820190508181036000830152611505816114c9565b9050919050565b600061151782610a6b565b91507fffffffffffffffffffffffffffffffffffffffffffffffffffffffffffffffff82036115495761154861117b565b5b600182019050919050565b60006040820190506115696000830185610bba565b6115766020830184610b9f565b939250505056fea26469706673582212205e60938b307e9a6d3cfee9b26cbe48793411f2fbbd17bf7bd128578317f761b664736f6c63430008140033",
  "linkReferences": {},
  "deployedLinkReferences": {}
}